:020000040800F2
:1000000000040020CD010008B70600080D05000817
:10001000B50600088B0300087140000800000000CE
:10002000000000000000000000000000113B00087C
:100030008D030008000000003B020008BD3B0008E3
:10004000ED010008ED010008ED010008ED010008D8
:10005000ED010008ED010008ED010008ED010008C8
:10006000ED010008ED010008ED010008ED010008B8
:10007000ED010008ED010008ED010008ED010008A8
:10008000ED010008ED010008ED010008ED01000898
:10009000ED010008ED010008ED010008ED01000888
:1000A000ED010008ED010008ED010008ED01000878
:1000B000ED010008ED010008ED0100081105000840
:1000C000ED010008ED010008ED010008ED01000858
:1000D000ED010008D13E0008ED010008ED01000827
:1000E000ED010008ED010008ED010008ED01000838
:1000F000ED010008ED010008ED010008ED01000828
:10010000ED010008ED010008ED010008ED01000817
:10011000ED010008ED010008ED010008ED01000807
:10012000ED010008ED010008ED010008ED010008F7
:1001300000F002F800F03AF80AA090E8000C8244BF
:100140008344AAF10107DA4501D100F02FF8AFF29C
:10015000090EBAE80F0013F0010F18BFFB1A43F0A5
:10016000010318477442000094420000103A24BF73
:1001700078C878C1FAD8520724BF30C830C144BF0C
:1001800004680C607047000000230024002500264E
:10019000103A28BF78C1FBD8520728BF30C148BFEA
:1001A0000B6070471FB51FBD10B510BD00F0B7F84C
:1001B0001146FFF7F7FF04F041F800F0D5F803B45B
:1001C000FFF7F2FF03BC00F0D9F800000B488047AE
:1001D0000B4880F308880B480047FEE7FEE7FEE780
:1001E000FEE7FEE7FEE7FEE7FEE7FEE7FEE70000CC
:1001F00005480649064A074B70470000D13B0008F6
:10020000B043002031010008B03D0020B043002081
:10021000B03F0020B03F002018484FF0FF010170B0
:10022000002080F309881648016881F30888154882
:100230004FF08051016062B6FEE772B6EFF30980BD
:1002400028B1203880E8F00F0F490968086000B530
:100250000E4880475DF804EB0D480E490A7802709D
:1002600009480D490A680260106890E8F00F2030D4
:1002700080F309884EF0040E62B6704722ED00E06C
:10028000D800002004ED00E0D0000020D1190008C3
:100290007200002073000020D400002072B6704766
:1002A00062B67047EFF3108072B6704780F3108823
:1002B000704730BF704720BF7047B0FA80F070477A
:1002C00090FAA0F0B0FA80F0704790FAA0F0704772
:1002D00040EA0103024630B59B0710D14FF00134CC
:1002E00000E008C208C91D1B9D4315EAC41FF8D0D1
:1002F00013F0FF0102F8011B0DD01B0AF8E711F8FB
:10030000013B002B02F8013B05D011F8013B002B0B
:1003100002F8013BF3D130BD704770477047754616
:1003200000F028F8AE4605006946534620F0070065
:10033000854618B020B5FFF75BFFBDE820404FF0C1
:1003400000064FF000074FF000084FF0000B21F0BF
:100350000701AC46ACE8C009ACE8C009ACE8C0098C
:10036000ACE8C0098D4670470446AFF300802046D4
:10037000FFF725FF004870474C3D00200149182039
:10038000ABBEFEE7260002007047FEE770470000A4
:1003900004490A6822F010020A600A6802430A60EF
:1003A0007047000000200240034A116801F0380144
:1003B000014311607047000000200240F0B5CA7888
:1003C000002502F00F03D20601D58A7813430A787C
:1003D0004FF00F0E12F0FF0F4FF001021CD0046817
:1003E0000F8802FA05F63740B74211D14FEA850C63
:1003F0000EFA0CF724EA070703FA0CF43C43CF7813
:10040000282F02D0482F02D002E0466100E00661AA
:100410006D1C082DE4D304600C88FF2C1ED94468A1
:100420005FF0000606F1080702FA07F50F882F4073
:10043000AF420FD14FEA860C0EFA0CF7BC4303FA19
:100440000CF73C43CF78282F00D14561CF78482F57
:1004500000D10561761C082EE4D34460F0BD4161F3
:10046000704701617047000038B50121102003F08A
:100470000BFA0121082003F007FA0121042003F000
:1004800003FA4FF40050ADF8000010208DF803007F
:1004900003248DF8024069461948FFF78FFFA00337
:1004A000184DADF8000069462846FFF787FF68152C
:1004B000ADF8000018208DF803008DF80240124CB2
:1004C00069462046FFF77AFF2015ADF800000420AA
:1004D0008DF8030069462046FFF770FF1C208DF859
:1004E00003004020ADF8000069462846FFF766FF8C
:1004F0008020ADF8000069462846FFF75FFF38BD51
:1005000000100140000C014000080140FEE700001F
:1005100010B5254C204600F05FF82449421A884265
:1005200030D008DC6FF4403140181FD0012831D0A2
:100530003F2813D133E0022A1CD0042A25D01C48BE
:10054000C2420BD11B4B00221B491C4800F05AF938
:1005500000224FF48061204600F045F82046BDE8B7
:10056000104000224FF4007100F03DB8114B002202
:10057000134903E00D490F4B0022891C0F4800F07E
:1005800041F9EBE70B4B0022F8E708490022094B41
:10059000091DF3E70A490022064B491CEEE708490A
:1005A0000022044B3F31E9E700540040800007007F
:1005B000000007F0160000208000001048230020F3
:1005C000010003000029018802D041F0010101E08F
:1005D00021F0010101807047818A008B41EA0041CE
:1005E00021F07F407047002A828801D00A4300E052
:1005F0008A4382807047000070B50446808886B0C8
:100600000D4620F03F06684603F070F9274902982E
:10061000B0FBF1F189B20E43A680228822F00102DC
:100620002280234B2A689A421CD85200B0FBF2F079
:1006300080B2042800D20420491C2184A083208891
:1006400040F00100208021884FF6F5300140A88855
:100650006A89104308432080A8892989084320819A
:1006600006B070BDEB88A3F53F46FF3E0BD002EB12
:10067000C20303EB0212B0FBF2F080B240F4804000
:10068000020506D007E002EB4202B0FBF2F080B2B6
:10069000F6E740F001004FF4967251434FF47A723E
:1006A000B1FBF2F140F40040C6E7000040420F0009
:1006B000A0860100FEE7704770B50F23C47801786B
:1006C0000122F4B1144C2468457804F4E064C4F5C4
:1006D000E064240AC4F10406E3408478B5401C4079
:1006E0002C4301F1E021230181F80034007800F06F
:1006F0001F018A404009800000F1E020C0F800217D
:1007000070BD01F01F0082404809800000F1E02028
:10071000C0F8802170BD00000CED00E002490843E4
:1007200002490860704700000000FA050CED00E087
:100730000907090E002806DA00F00F0000F1E0209A
:1007400080F8141D704700F1E02080F80014704715
:1007500038B54FF4A060FFF7E1FF25208DF80000C9
:1007600001208DF8030000248DF801408DF802006F
:100770006846FFF7A1FF1F208DF800008DF80240AA
:100780006846FFF799FF38BD704700002DE9F0413A
:100790000446184890460F4600781D4610B142F6B0
:1007A000E16025E014B3FFF77DFD134E3178491C5D
:1007B0003170FFF77BFD1148C4E900070027C4E949
:1007C000088704F1080001F059FE204601F040FAC4
:1007D0000B490888401C0880FFF764FD3178491EEA
:1007E0003170FFF763FD2F80BDE8F08145F6C350FF
:1007F0001880F9E7440000207E000020464C414765
:10080000600000207FB50C4668B17AB1012A0DD096
:10081000B2F5004F0AD06FF40041CA4206D045F647
:100820002560188017E045F6C350FAE70E4D0168C1
:10083000A94202D045F6C450F3E70C4E00213678A9
:1008400066B1CDE90213CDE90042002301461A4604
:10085000284601F019FB002004B070BD00930B4640
:10086000214601F013FAF7E7464C414744000020C7
:1008700002480068002800D0004770473000002080
:1008800010B5044600F0B2F8434900200A2208706F
:10089000424908704249087042490860424908606C
:1008A000424908704249087042490870424908703C
:1008B00042490968B1FBF2F1414A1160414A1168AD
:1008C00031B14149096819B1126801C1521EFCD108
:1008D0003E4908603E4908603E4908603E4908605C
:1008E0003E4908603E4908603E4908603E4908703C
:1008F00001F096FE01F03AFF204601F0BBF9208896
:10090000002847D1204601F069FC2088002841D109
:10091000204601F06FFC208800283BD1204601F0E2
:100920002FFD2088002835D1204601F0B1FE208817
:1009300000282FD1204602F025F82088002829D150
:10094000204602F03BFA2088002823D1204601F0FF
:10095000ABFB208800281DD1204601F061FA2088D9
:10096000002817D1204602F0C9FD2088002811D1A7
:10097000204602F081F9208800280BD1204602F0A1
:1009800011FE2088002805D101F060F9BDE8104073
:10099000FFF7FABE10BD0000440000204500002013
:1009A0007E000020D0000020D40000207200002033
:1009B000730000207400002084000020AC43000875
:1009C00080000020884300088443000824000020A1
:1009D000280000202C0000203000002034000020DF
:1009E000380000203C000020B200002004480549E7
:1009F0000068096800EB81000349001F0860704728
:100A00008443000888430008D80000200548007887
:100A1000012805D104490878FA2801D2401C087041
:100A20007047000045000020440000201A4810B51F
:100A3000007801282FD1FFF735FC184A04461178B9
:100A400029B1491E11F0FF00107022D103E0BDE86A
:100A50001040FFF72BBC12480078D0B901F0CEFD52
:100A600010490870104900EB400051F820100F4861
:100A700001600F48006881420BD051F8900F401C74
:100A800008600C480168491C01600B494FF0805018
:100A900008602046DBE710BD450000204400002030
:100AA0007E000020730000208C390020D40000203C
:100AB000D0000020A800002004ED00E02DE9F05F48
:100AC00005462C48DDE90A8600781F4614468B4609
:100AD00010B145F2B9600EE045F2BB605CB1022F87
:100AE00001D2401C07E045F2C161B8F1040F08D300
:100AF00014F0030F02D03080BDE8F09F18F0030F10
:100B000001D03180F8E77A1E93B22146002205E039
:100B100001EB08000860521C014692B29A42F7D3DA
:100B20004FF0000AC1F800A0FFF7BCFBDFF84890C7
:100B300099F80010491C89F80010FFF7B7FB0F481F
:100B400085E81108EC60AF826F82A5F81080284616
:100B500001F036FB0A490888401C0880FFF7A2FB19
:100B600099F80010491E89F80010FFF79FFBA6F8BE
:100B700000A0C1E7440000207E0000204D454D202C
:100B80006800002070B504000D4610D0FFF78AFB06
:100B90000146A08A78B1E668401E3268E260A08211
:100BA0000846FFF783FB00202880304670BD45F2E1
:100BB000BF60088005E00846FFF778FB45F2C26099
:100BC0002880002070BD70B50E46040015460BD07D
:100BD0006EB1FFF767FBA18A628A91420BD3FFF7E0
:100BE00065FB45F2BA600FE045F2BF6001E045F2F7
:100BF000BE60108070BDE1683160E660A18A491C6A
:100C0000A182FFF753FB0020288070BD2DE9F04141
:100C100004461C481746884600781D4610B142F627
:100C2000E1602CE034B347B3FFF73CFB164E31785C
:100C3000491C3170FFF73AFB1448C4E900083946F3
:100C400004F1200001F050FB04F1080001F016FC53
:100C5000204601F00BFD0E490888401C0880FFF774
:100C600021FB3178491E3170FFF720FB00202880DE
:100C7000BDE8F08145F6C35001E046F2945018807B
:100C8000F6E70000440000207E0000205155455545
:100C90007C0000202DE9F04F074689B05348DDE97C
:100CA000125400781E4691468B4610B146F2AE10A3
:100CB00040E047B156B110000BD0B2F5004F08D05C
:100CC00045F6256036E045F6C35033E046F2D520C0
:100CD00030E047493868884202D045F6C45029E0E0
:100CE0004FF000080DB1C5F80080FFF7DBFA009067
:100CF00023462A46314607F1200001F0C9FA824610
:100D0000208840B15FEA09400CD50098FFF7CEFA81
:100D100046F2B0100EE00098FFF7C8FA504609B04E
:100D2000BDE8F08F3348017839B10098FFF7BEFA7B
:100D300046F6635020800020F1E78146012089F8C3
:100D400000000098FFF7B2FA5B460522394601A879
:100D500001F022FBFFF7A6FA99F80010491E89F866
:100D60000010FFF7A3FA00F091F8FFF79BFA024694
:100D70002148016891F8353063B1012B15D0022B61
:100D80002AD0032B4FF0000719D0A6F8008046F6B2
:100D90002E601BE0CF6DB1F86010318015B1006896
:100DA000006C2860A4F8008011E00027A6F80080FD
:100DB00015B10068006C286046F2A91006E04046B4
:100DC000A6F8008005B1286047F2D920208010469F
:100DD000FFF76CFA3846A2E70027A6F8008015B1A5
:100DE0000068006C286045F6C250EFE74400002020
:100DF000515545557E000020D00000202DE9FF41CF
:100E00000D460A99144670B14FF40076B3F5004FC1
:100E100018D00BDCB3B1102B14D0B34212D0B3F501
:100E2000047F0CD10EE045F6C35011E0A3F500425B
:100E3000103A07D0B2F5F87F04D0B24202D045F69E
:100E4000256005E00F4E0268B24204D045F6C4505A
:100E50000880BDE8FF810C4F00223F785FB103910D
:100E600000270097CDE90132014623462A46304645
:100E700001F00AF8EDE7CDE900212246294601F00C
:100E800013FCE6E75155455544000020164810B5BF
:100E90000078002826D115480078002822D1FFF7D5
:100EA00001FA044601F0AAFB11490870114900EB50
:100EB000400051F820001049086010490968884234
:100EC0000BD050F8901F491C01600D480168491C67
:100ED00001600C494FF0805008602046BDE810408A
:100EE000FFF7E4B910BD0000440000207E000020A0
:100EF000730000208C390020D4000020D000002096
:100F0000A800002004ED00E070B504460E4800780B
:100F100010B146F6625015E00C480078012802D066
:100F200045F689600EE00A4D2878FA2802D345F28A
:100F3000092007E0FFF7B6F92978491C2970FFF767
:100F4000B5F90020208070BD44000020450000203D
:100F50007E00002070B504461348007810B146F6B4
:100F600065501EE011480078012802D045F68960DE
:100F700017E00F4D287860B1FFF794F92978491EE2
:100F800011F0FF01297007D0FFF790F946F6635082
:100F900007E046F6645004E0FFF788F9FFF776FFB4
:100FA0000020208070BD000044000020450000208B
:100FB0007E0000202DE9F041044618481746884677
:100FC00000781D4610B142F6E16025E014B3FFF74A
:100FD00069F9134E3178491C3170FFF767F92762C0
:100FE000002710486762C4E9000804F1080001F016
:100FF00045FA204601F0B4FC0B490888401C0880E3
:10100000FFF750F93178491E3170FFF74FF92F8003
:10101000BDE8F08145F6C3501880F9E74400002090
:101020007E00002053454D418C0000202DE9F04703
:101030000646494888B01C460078109D91468A466D
:1010400010B146F2AE100AE03EB1100009D0B2F580
:10105000004F06D045F6256001E045F6C3502880D4
:101060005BE03E483168814202D045F6C450F6E765
:10107000002704B12760FFF715F9D6F82080B8F1F2
:10108000000F0BD0A8F10108C6F820800CB1716ADE
:101090002160346AFFF70AF92F8054E05FEA0941C2
:1010A00008D5FFF703F946F2B0102880404608B093
:1010B000BDE8F0872A490A7822B1FFF7F7F846F62B
:1010C0006350CCE78846012188F80010FFF7EEF85E
:1010D000534606223146684601F05EF9FFF7E2F812
:1010E00098F80010491E88F80010FFF7DFF8FFF7A6
:1010F000CDFEFFF7D7F801461A48006890F8352072
:101100006AB1012A10D0022A1FD0032A12D046F653
:101110002E6028800846FFF7C9F80020C7E70CB109
:10112000006C20602F800AE00CB1006C206046F259
:10113000A91003E004B1276047F2D92028800846AF
:10114000346AFFF7B3F82046B1E70CB1006C2060B9
:1011500045F6C250F2E700004400002053454D41DF
:101160007E000020D00000207FB568B179B1B1F5D4
:10117000007F0CD0B1F5004F09D0B1F5024F06D079
:1011800045F62560108017E045F6C350FAE70F4D8D
:101190000368AB4202D045F6C450F3E70C4B002481
:1011A0001B7863B10023CDE90031CDE9024201464D
:1011B0001A46284600F068FE04B0002070BD1346B1
:1011C00004B02246BDE8704001F0E8BB53454D41F4
:1011D0004400002070B50F4D0446287818B145F63C
:1011E0008A60208070BD01F009FA0B4908700B4934
:1011F00008700B4900EB400051F8200009490860D5
:101200000949086001202870FFF706F843F6992085
:10121000E7E7000045000020730000207200002076
:101220008C390020D4000020D000002070B5064684
:10123000FFF738F8214900250D6021490D8021492B
:101240000D8021490D6021490D6021490D60214922
:101250000D81FFF72BF8FFF725F81F490C6816E002
:10126000FFF720F8A567C4F8A850C4F89050A4F878
:101270008C50A4F88E500146C4F89C50C4F8A0507D
:101280007020C4F898500553D4F8B8400846FFF7CA
:101290000DF8002CE4D1FFF705F810490C6803E0C5
:1012A000FFF700F8A585A469FFF700F8002CF7D137
:1012B00002F05CF802F044FA358070BD580000205E
:1012C0005200002092000020A4000020B80000205E
:1012D000C000002080390020AC00002078000020F1
:1012E00002480068002800D0004770473400002002
:1012F0002DE9FF4F83B004466148DDE91785DDE93C
:1013000010960078DDF854A0139F10B147F24A10F0
:101310002AE04CB1059850B166B15A48006887423E
:101320000BD246F630601FE047F2AD101CE047F2EA
:101330004F1019E046F62F6016E01298B84202D31B
:1013400046F6316010E046F27320B9F1200F0BD25F
:101350005FEA090103D0B9F11F0F02D008E04A4942
:1013600000E04A498C4203D0288007B0BDE8F08FE6
:10137000204601F033FD4FF0000BA5F800B05FEA06
:10138000C8700AD05FEA887007D5304600215A46F7
:1013900001E004C0491CB942FBD31298CDE90078A2
:1013A00006EB8005DDE905012B46324600F0D8FA50
:1013B0000599A1620699E1620499216284F8379047
:1013C000C4F854A0A56020605FEA0A003AD0A06586
:1013D0001698A76366626060A4F83C8000205946B6
:1013E00004EB8002401CD16710F0FF00F8D004F13C
:1013F0006400149900F078FF204600F053F8FEF7DF
:1014000051FF234D2978491C2970FEF74FFF94F8AE
:10141000370001F00BF9204601F0EEF9204601F00B
:101420009FFC1C490888401C08801B480078012844
:101430001AD0FEF737FF2978491E11F0FF012970F5
:1014400003D00CE015480068C1E71549098831B19F
:10145000FEF72CFF07B0BDE8F04F01F02BBA07B044
:10146000BDE8F04FFEF722BFFEF71CFF2978491EAA
:101470002970FEF71BFF07B0BDE8F04FFFF706BD70
:1014800044000020A8430008C03800200038002095
:101490007E000020B00000204500002080000020D9
:1014A0005000002002490968002900D00847704711
:1014B0002400002070B504463D480E46007810B167
:1014C00047F24E100AE03B48844202D147F24C10EA
:1014D00004E03948844203D147F24D10088070BDC2
:1014E0002CB9FEF7DFFE35490C68FEF7DFFEFEF78C
:1014F000D9FE334D2978491C2970FEF7D7FE94F8A0
:10150000360008283ED2DFE800F004080C0C1C0866
:101510000C0C204601F0A4F913E0204601F00AFF6C
:101520000FE0204601F006FF94F83400072808D2A7
:10153000DFE800F00704070404040400204600F07C
:10154000CFFF04F1640000F089FE204600F03EF871
:10155000204601F017FC1B490888401E08802046E1
:1015600001F03CFCFF2084F83600FEF79BFE297852
:10157000491E2970FEF79AFE00203080BDE87040B9
:10158000FFF784BCFEF78EFE2978491E11F0FF019B
:10159000297007D10C49098821B1FEF787FE01F0B7
:1015A00089F901E0FEF782FE46F62D60308070BDBD
:1015B0004400002000380020C0380020D000002067
:1015C0007E000020B0000020500000200249096881
:1015D000002900D008477047280000202DE9F84F67
:1015E00083464E480A9D1C46007816460F4610B1A9
:1015F00046F2AE100AE03EB1080009D0B1F5004F46
:1016000006D045F6256001E046F2D52028801CE092
:101610004FF000090CB1C4F80090FEF743FEDFF86C
:10162000008100902B46D8F80000224631466430F5
:1016300000F02EFE8246288850B1380417D546F2B5
:10164000B01028800098FEF731FE0020BDE8F88F2A
:1016500044B12068D8F80010404248678A6F82423F
:1016600000D288670098FEF721FE5046EEE72D482D
:10167000017829B10098FEF719FE46F66350C5E7D8
:101680000746012038700098FEF710FE00215B46E7
:101690000222084600F080FEFEF704FE3978491E5B
:1016A0003970FEF703FEFFF7F1FBFEF7FBFD024684
:1016B000D8F8000090F8351091B101294FF00007DB
:1016C00023D0A6F800901CB1D8F80000006C206070
:1016D00047F2D92028801046FEF7E8FD3846B5E7E6
:1016E000C76DB0F86000308064B1D8F80000006CBD
:1016F0002060D8F80000016C49424167836F8B423B
:1017000000D28167A5F80090E5E74846A6F800906A
:1017100004B1206046F2A910DCE70000440000207C
:10172000D00000207E0000207FB51446089A0D46A8
:1017300063B1102B0AD0B3F5004F07D0A3F50041D9
:10174000103903D045F6256010807FBD0B4E002177
:1017500036785EB1002603920096CDE9013101464C
:1017600023462A46064800F08FFB7FBDCDE90012D4
:101770002246294601F090FB7FBD00004400002076
:10178000544D534702490968002900D00847704763
:101790002C0000202DE9F0478246494814461E4699
:1017A0000078894610B146F2AE1006E0080006D077
:1017B000B1F5004F03D045F62560188037E00027CB
:1017C00004B12760FEF76EFD3E4D02462868D0F852
:1017D0004480B8F1000F18D0A8F10108C0F8448087
:1017E0000CB1006C20602868016C4942C0F8A4105C
:1017F000D0F8A8308B4201D2C0F8A8101046FEF7EE
:1018000055FD37804046BDE8F0875FEA094005D5C1
:101810001046FEF74BFD46F2B01007E02A4801786B
:1018200039B11046FEF742FD46F663503080002085
:10183000E9E78046012088F800001046FEF736FDF3
:10184000002153460722084600F0A6FDFEF72AFDB8
:1018500098F80010491E88F80010FEF727FDFFF7E2
:1018600015FBFEF71FFD296891F8352032B1012ADA
:1018700014D0032A18D046F62E6119E064B1096C21
:10188000216029680A6C5242C1F8A420D1F8A8301E
:10189000934201D2C1F8A82037800AE00CB1096C4C
:1018A000216046F2A91103E004B1276047F2D92173
:1018B000318029684C6CFEF7F9FC2046A3E7000054
:1018C00044000020D00000207E0000202DE9F041DF
:1018D0000546214816460F4600781C4610B147F2CF
:1018E000591007E046F2D52027B11EB1FEF7DAFC09
:1018F0001DB104E01880BDE8F08118490D684FF073
:101900000008296841B195F83C10C9070DD0FEF7D1
:10191000CDFC0020696A14E0FEF7C8FCC7F800801F
:1019200047F25210C6F8008007E0FEF7BFFCC7F888
:10193000008047F25410C6F800802080DBE7401C8E
:10194000091D0A68002AFAD03860A96B081A3060AD
:10195000A4F80080CFE7000044000020D000002061
:1019600010B5029C02EB84024FF0807442E902043D
:10197000164842F80C0C4FF0123042F8100CA2F14D
:1019800014004FF0023240E903134FF0113140F8D8
:10199000101CD10040F8141C4FF0093140F8181CFD
:1019A000910040F81C1C4FF007314FF0033440F811
:1019B000201C610040F8241C4FF0053140F8281D20
:1019C0005100C0E9092440F8041D10BD5D30000835
:1019D0000B4810B5006800B180470A480A49002248
:1019E00000680968884207D0D0F898305B4240F818
:1019F000943F846823448360C1F8982010BD0000A0
:101A000038000020D0000020D40000202DE9F04153
:101A1000074626480E461546007810B147F2752055
:101A200030E0234C207810B146F663502AE046B1EE
:101A3000022E06D0042E05D0082E02D045F62560D1
:101A400020E0EFB1FEF72EFC2178491C2170FEF753
:101A50002DFCDFF8608001212B46D8F800003246CB
:101A600080F83610394601F0F9FB288868B1FEF796
:101A700019FC2178491E2170BDE8F041FEF716BC23
:101A800047F27E201080BDE8F081D8F8000000F019
:101A9000E7FEFEF707FC2178491E2170FEF706FCE1
:101AA000FFF7F4F900202880EDE700004400002053
:101AB0007E000020D00000202DE9F0474B4EDDE9EC
:101AC0000854367816B147F2752088E0DFF820A177
:101AD0009AF8006016B146F6635080E015F00E06E5
:101AE00047F27E2945F6256705D0022E03D0042E45
:101AF00005D0082E06D113B90AB901B9F0B335F0F3
:101B00001E0C02D02780BDE8F087C5F3001547F210
:101B1000792C47F278284FF47A7735B142F20F7575
:101B2000A94211D9A4F800C0EDE7BB4202D347F2A5
:101B30007B2054E03B2A02D947F27A204FE03B2930
:101B4000F0D8632802D804E0B84202D3A4F8008099
:101B5000D9E7284D4FF4FA7CC1EB01112D68BCFB8D
:101B6000F5FC63446B43B3FBF7F34FF461677843D1
:101B700000EB8100104400FB053700E031E087B343
:101B8000FEF790FB9AF800105546491C8AF80010A1
:101B9000FEF78CFBDFF8608001212346D8F80000B7
:101BA000324680F83610394601F058FB208840B1A3
:101BB000FEF778FB2978491E2970BDE8F047FEF74B
:101BC00075BBD8F8000000F04BFEFEF76BFB2978E0
:101BD000491E2970FEF76AFBFFF758F900202080A4
:101BE00091E7FFE7A4F800908DE700004400002093
:101BF0007E000020AC430008D000002000B585B076
:101C000000F01CF8002101AB04AA0846009183E80B
:101C1000070007480749002300781A4600EB4000F8
:101C200001EB8001044800F02FF905B000BD000071
:101C3000720000208C3900205449434B0248006850
:101C4000002800D0004770473C000020704700008B
:101C50000022074B05A14261C161196819B1816178
:101C60004861186070478261FBE7000020000000B7
:101C70005C000020034A00211160034A11800180AA
:101C8000704700005C000020600000202DE9F04754
:101C90009A4690460D460446089FFEF703FB5FEA0E
:101CA000080120D0012907D0B1F5004F1BD06FF4F7
:101CB000004218EB020F11D1216AA943C4E9081AA6
:101CC000218A04F108064FF0000979B1374D2978CF
:101CD000491C2970FEF7EAFA36683FE0FEF7E6FA9B
:101CE00045F625605EE0216A2943E7E7FEF7DEFA64
:101CF000A7F80090206ABDE8F08790F88810766811
:101D000001F00F01012918D002291ED004290AD0A0
:101D100008290DD0FEF7C6FA2978491E11F0FF01F7
:101D2000297033D03AE0216AD0F88020114009E0D0
:101D3000216AD0F8802011400BE0D0F88010236A8F
:101D40000A4699438A4205D007E0D0F88010226AFB
:101D5000914311B1524600F02DF816B1B068002839
:101D6000CBD1FEF79FFA2978491E2970FEF79EFA1B
:101D70005FEA084001D4FFF789F8FEF793FA246A76
:101D8000FEF794FAA7F800902046B4E708490988BE
:101D900021B1FEF78BFA00F08DFD01E0FEF786FA27
:101DA00043F6FF2038800020A5E700007E000020D9
:101DB0005000002070B50025C0F8841080F8355020
:101DC00080F834500446026490F8360008280ED299
:101DD000DFE800F00D0D04040D0D0A0A204601F0A5
:101DE000D1F884F8365002E0042084F8360020460A
:101DF000BDE8704000F074BB074C084DFEF752FA86
:101E00002168491C21602968491C2960FEF74EFAA7
:101E1000FEF72EFDF2E700004000002094000020B5
:101E200000B50E4A89B0002111600B220591069180
:101E3000CDE907200A480B4A0B4B006812681B6863
:101E40000292CDE903011F20CDE900030023074AD8
:101E500007A10C48FFF74CFA09B000BD4000002074
:101E60006C4300086843000864430008F91D00083B
:101E700075432F4F532D4949492049646C652054BF
:101E800061736B00003800202DE9F05F1E46DDE92C
:101E90000AAB90460F4681460D9CFEF703FA0546B5
:101EA0001C481D4A0188128891422BD2491C89B2D4
:101EB00001801A4802888A4200D2018018490868C5
:101EC000C0F80090C0E902780682C0F814A0A0F81B
:101ED00018B00C9AC2614068086012480121018163
:101EE000114901604160002000F0A0FB0F4800781C
:101EF00008B10F490870002020802846BDE8F05F37
:101F0000FEF7D4B90B490888401C088044F253609E
:101F1000F2E7000050000020744300085200002047
:101F2000480000208C390020C038002072000020BA
:101F300074000020540000203EB5364C364B02A9F8
:101F400020680268D51A9A4245D015DC334BD21866
:101F50002DD0334BD21822D0324BD21832D0324B44
:101F6000DA4208D1C269CDE90021038B028AC16837
:101F7000806800F091FF3EBD2C4AAA181ED02C4B61
:101F8000D21824D02B4BDA42F5D1C269CDE9002119
:101F9000038B028AC168806800F086FB3EBD009119
:101FA000028BC36941698068FFF770FE3EBD018BFB
:101FB000C269806802AB00F0F1FC3EBD806800F0B1
:101FC000EFFF3EBD018BC269806802AB1FE08068F5
:101FD00001F0DAF83EBD18481849007800EB4000DF
:101FE00001EB800000F08AFC206802AB0021C2698E
:101FF000134801F03FF813480168491E0160E9D118
:102000001149002202AB0968016011460F4801F036
:1020100031F83EBD4C0000205449434BADBAB2BE2E
:102020000DF90BFAF2F8F7FF0006F6FF00F7FDF7DF
:1020300000FFEFFF03FE0FFE740000208C3900202C
:10204000CC3B0020CC000020C80000208C3C0020AD
:10205000124C134DFEF726F90646208878B130461B
:10206000FEF724F9FFF768FFFEF71CF929684968B5
:1020700029602188491E2180FEF718F9EAE70948FE
:102080000021018101604160084600F0DFFA30461E
:10209000FEF70CF9FEF7FAFEDBE700005000002027
:1020A0004C0000208C390020F0B52F492F4D89B00D
:1020B00000220A80296831B12D4E3188022905D2CB
:1020C00044F2546135E044F2526132E02949002380
:1020D000294F0A60296801F1200410E041F8087BCB
:1020E0005B1C41F8082B9BB241F8042C21F8102B03
:1020F00041F80C2C21F8082C41F81C4C2034B6F87F
:1021000000C06345EAD32B6841F81C3C1B490B60B7
:102110001B490B601B490A801B490A801B490B683D
:1021200053B11B4B1B4D1C682D68AC4207D244F2C7
:102130005661018009B0F0BD44F25561F9E703240E
:1021400005920692CDE907401868134B09681B6891
:10215000CDE903020092CDE9011300230F4A10A13B
:102160001648FFF7C5F8E5E7540000207043000863
:1021700074430008580000204E4F4E454800002090
:102180004C0000205000002052000020784300083E
:1021900080430008A84300087C4300085120000841
:1021A00075432F4F532D49494920495352205175AA
:1021B000657565205461736B00000000C038002015
:1021C000054B00228261196819B1C16188611860EC
:1021D0007047C261FBE7000064000020034A002151
:1021E0001160034A118001807047000064000020E4
:1021F00068000020F0B5164C216859B1154E3188A1
:1022000059B189B2491E22688FB2002502F110032C
:1022100029460EE045F21E7118E045F21D7115E0E9
:10222000E2E802316D1C22F8081BADB242F8041C32
:102230001033BD42F4D3116051601181D160064A60
:102240002368136033889380D18011810180F0BDB1
:10225000904300088C4300088039002010B5428963
:1022600092B10A4903680C681C6043680B60CB8814
:1022700044891B1BCB808B88448923448B8000219D
:102280004181818101604160104610BD803900208C
:10229000F0B544890025CCB14468278966680F8071
:1022A0000AB1E168116021684160B9B14189491EF4
:1022B00041810C480168216004608188491C81804B
:1022C000C188491EC1801D803046F0BD0D8002B11D
:1022D000156046F2925018800020F0BD05604581DF
:1022E000E7E70000803900200181002141818181E0
:1022F0000160416070470000F0B54489DDE905E701
:102300000589AC4202D346F293501EE01B4DAE88C5
:10231000CEB12C68761ED4F800C0C5F800C0AE80DF
:10232000EE88761CB6B2EE80B5F808C0B44500D28F
:102330002E814689002556B1DB060ED403681C6049
:10234000046025600CE045F21D703880F0BD04602B
:10235000012344604381256005E0436823604460B5
:1023600043895B1C4381868943899E4200D28381D5
:1023700061602281C4F80CE03D80F0BD803900200E
:10238000034A00211160034A118001807047000058
:102390006C000020700000202DE9F041114D07462F
:1023A0000C4628680026194680F8342080F83560ED
:1023B00000F0C0FC64B1FC6004F10806012239465B
:1023C000286800F011F83946304600F05CF802E069
:1023D0002868C687066320462968BDE8F04100F0FA
:1023E0001BB80000D000002010B5C287002423468F
:1023F00001630EE04B6041F8103B641C41F8103B58
:10240000A4B241F80C3C21F8083C41F8043C41F8E6
:10241000180C9442EED310BD38B14268C1F8BC200C
:1024200081688968096AC161704791F8340002289F
:1024300003D0072803D004A002E004A000E005A018
:10244000C1F8BC0070470000200000005461736BAD
:10245000205100005461736B2053656D0000000033
:1024600005A2C1F8BC20816811B18968096A00E041
:1024700001A1C1617047000020000000002101603F
:1024800041600181704730B58A68002392F8374077
:1024900002891AB1521C028102680BE001220281FA
:1024A0004B600B60016014E0956895F83750A542C9
:1024B00003D85268002AF7D107E032B1146854B14A
:1024C000C1E900426160116030BD4B6042680A6042
:1024D0005160416030BD1160C1E90032016030BD22
:1024E00070B50646C48F056B07E0E86829460830DA
:1024F00000F009F8641EA4B22035002CF5D10020AC
:10250000F087306370BD10B502890023012A0BD01B
:102510000A6862B14C6874B1546022600289521E2C
:1025200002814B600B6010BD03604360F6E74A68B0
:1025300013600260F2E753604260EFE7F8B50C46C3
:10254000064691F836100025069808293BD2DFE8A8
:1025500001F03A3A04043A3A202094F8341003295E
:1025600011D0E265A4F86030206436B12046FFF750
:10257000B7FF21463046FFF773FF204600F002FD0B
:1025800084F836501BE000902146304600F022F8D7
:10259000EBE794F83410032916D0E265A4F8603014
:1025A0002064204600F0C6FE36B12046FFF798FFB3
:1025B00021463046FFF754FF042084F8360084F8A3
:1025C000355084F83450F8BD00902146304600F074
:1025D00001F8E6E770B50C6B049DC98F0AE0E66868
:1025E000864204D1C4E904022383E56170BD491E1B
:1025F00089B220340029F2D170BD000010B500244A
:10260000064802E02034E4B2001D01680029F9D038
:102610000846FDF752FE2044C0B210BD2000002045
:1026200001490020086070472000002000F01F02D0
:1026300041090120C2F11F029040034A52F82130A3
:10264000034342F8213070472000002000F01F02B1
:1026500041090120C2F11F029040034A52F8213083
:10266000834342F821307047200000200022074BAE
:1026700005A14261C161196819B1816148611860A1
:1026800070478261FBE70000200000007800002016
:10269000034A00211160034A118001807047000045
:1026A000780000207C0000202DE9FF4F83B01F46FA
:1026B000DDE9109A93460646FDF7F4FD294C217892
:1026C000491C2170FDF7F2FD358A06F108001DB1A5
:1026D000B90525D5006831E0F80601D4002300E0F3
:1026E0001023CDE9009A5A4606F120000499FFF71D
:1026F00003FEFDF7D7FD2178491E11F0FF0121707F
:1027000009D11949098831B1FDF7D0FD07B0BDE8FD
:10271000F04F00F0CFB807B0BDE8F04FFDF7C6BDF1
:10272000006801255B46D0E90181CDF80090304674
:10273000049AFFF703FF6D1E4046ADB2002DF1D1A4
:10274000FDF7B0FD2178491E2170FDF7AFFD38047B
:1027500001D4FEF79BFB0021AAF8001007B0BDE8EA
:10276000F08F00007E000020500000200020074B6A
:10277000014600BF00EB400203EB8202401C1181C6
:102780001160C0B251602028F4D370478C3900200A
:1027900010B5044690F83700FFF748FF074994F852
:1027A000370009788842204603D1BDE8104000F088
:1027B00023B8BDE8104000F003B80000720000200C
:1027C00090F837100B4A01EB410102EB8101002226
:1027D0000B8943B15B1C0B810B68C0E903320A68AB
:1027E00010610860704701230B81C26002610860BC
:1027F000486070478C39002090F837100A4A01EB86
:10280000410102EB810100220B893BB15B1C0B8172
:10281000C2604A680261D0604860704701230B8142
:10282000C26002610860F7E78C39002010B50289A8
:10283000002A14D0012A12D00021022A07D0D0E9A0
:102840000024D3681961C2E90314E26005E0D0E90D
:102850000023C2E90313C3E90321C0E9003210BD1C
:1028600070B5054690F83700114900EB400001EBC8
:102870008001D5E90302002442B10B895B1E0B8164
:10288000D06090B102612C61EC6070BD28B10A8902
:10289000521E0A8104610860F5E70C810C604C60EF
:1028A00095F83700FFF7D2FEEDE74A60EBE700004E
:1028B0008C39002010B5FDF7F5FC0B4A0021117092
:1028C0000B4A0A49116051F8902F521C0A600949BD
:1028D0000A68521C0A60084A4FF080511160BDE836
:1028E0001040FDF7E3BC000073000020C03800205A
:1028F000D4000020A800002004ED00E070B50446DC
:1029000013480078012822D1FDF7CCFC2168054648
:1029100041B11048814218D08A6D3AB1521E8A6581
:1029200013D103E0BDE87040FDF7C0BC2089022848
:102930000BD30948007840B92046FFF777FF20689D
:10294000416D09B90549096881652846EAE770BD06
:1029500084000020003800207E000020800000203D
:102960000022074B05A14261C161196819B181615B
:102970004861186070478261FBE70000200000009A
:1029800088000020034A00211160034A1180018061
:1029900070470000880000208C0000202DE9F84FCF
:1029A0001E46904689460446FDF77CFC0146208A77
:1029B00004F108074FF0000B78B1DFF890A008464B
:1029C0009AF80020521C8AF80020FDF76FFC5FEA9D
:1029D000895018D53D893F6822E0256A681C0AD0D5
:1029E0006D1CC4E908580846FDF760FCA6F800B065
:1029F0002846BDE8F88F0846FDF758FC46F6C55056
:102A000030800020F5E73F6801250023B9687F6822
:102A10001A462046CDF80080FFF790FD6D1EADB23E
:102A2000002DF2D1246AFDF73DFC9AF80020521ED9
:102A30008AF80020FDF73AFC5FEA094001D4FEF76E
:102A400025FAA6F800B02046D3E700007E0000205B
:102A5000784C08B52068784E450004E028466A4660
:102A60000021FEF7D3FF30780128F7D16846FEF742
:102A7000DDFB724822680168914204D9B1FBF2F192
:102A80005FEA010903D101680A20B1FBF0F9DFF820
:102A9000B08142F2107A00264FF0000BFDF702FCE5
:102AA0006849694C0A6822600E60FDF7FFFB6748C1
:102AB000236802689A422BD96548824202D2504666
:102AC000012115E06348824203D24FF47A700A2153
:102AD0000EE06148824202D26420014608E05F486D
:102AE000824203D20A204FF47A7101E0012051465C
:102AF000B2FBF1F15843B0FBF1F1AAEB01005849E8
:102B000080B2088057490A88824204D2088002E0D5
:102B10005349A1F800A0FEF7E3FB0024FDF7C2FB38
:102B2000D8F8005024E000BFFDF7BCFB4E4F3978C9
:102B3000491C3970FDF7BAFBD5F89C00C5E9276040
:102B4000FDF7B0FB3978491E11F0FF01397007D14C
:102B50004649098821B1FDF7A9FBFFF7ABFE01E06B
:102B6000FDF7A4FB55F8A00F0444FDF79BFBAD69EE
:102B7000FDF79CFB002DD7D1F4B13548844202D239
:102B80005546012015E03348844203D24FF47A754C
:102B90000A200EE03048844202D26425284608E02C
:102BA0002E48844203D20A254FF47A7001E00125B1
:102BB0005046B4FBF0F701E000250127FDF772FB5A
:102BC000D8F800401CE000BFD4F8A0006843B0FB78
:102BD000F7F080B2504500D95046A4F88C00B4F804
:102BE0008E10814201D2A4F88E0004F1AC026B4633
:102BF000111D2046FEF76AFEFDF754FBD4F8B840DD
:102C0000FDF754FB002CDFD119480178012903D1CD
:102C100006706846FEF70AFB1649CBF100000A6809
:102C2000824200D208606A4600214846FEF7EEFE66
:102C300032E7000098430008A0000020AC430008E1
:102C4000AC000020940000209C0000209800002090
:102C5000801A060000093D00005A62020084D7175E
:102C600090000020920000207E00002050000020F4
:102C70008E000020A400002030B51D4A89B000213C
:102C800011601C4A11601C4A11601C4A11701C4AD8
:102C900011701C4A136843B11B4B1C4D1C682D68F6
:102CA000AC4205D246F62C6108E046F62B6105E001
:102CB000174C25781F2D04D346F62A61018009B0F0
:102CC00030BD032505910691CDE9075011481B68D9
:102CD00012680068CDE90120CDE903312078009029
:102CE00000230D4A0DA11248FEF702FBE7E70000A2
:102CF000940000209C00002098000020A0000020EC
:102D00008E0000209C430008A4430008A84300084C
:102D100094430008A0430008512A000875432F4F30
:102D2000532D4949492053746174205461736B00D9
:102D30000C3B002038B50446022531B16B46022217
:102D400000F08CFABDF8000028B184F83650204617
:102D5000FFF786FD38BD032084F83600F7E7000052
:102D6000074B0022C0F8B420196829B1C0F8B81088
:102D7000C1F8B40018607047C0F8B820FAE7000046
:102D8000AC000020D0E92D2100234AB181B1C2F866
:102D9000B810C1F8B420C0F8B830C0F8B4307047EB
:102DA000054A116009B1C1F8B430C0F8B8307047B5
:102DB000C2F8B830F1E70000AC000020044A00215E
:102DC0001160044A1180044A1160018070470000BC
:102DD000AC000020B0000020A800002070B5002545
:102DE000056085604560C560056145610446856193
:102DF00026A0C4E907506562A562E5622563E58700
:102E00002564E565A4F86050002104F16400FFF733
:102E10006BFA6567A567C4F88050A4F88850002055
:102E2000C4F8845004EB8001401CCD6710F0FF0013
:102E3000F8D06564C4F8A450C4F8A850A56384F819
:102E40008A50C4F8B050C4F8AC50A5874FF0004089
:102E5000C4E9120525656565A565A4F88C50A4F83C
:102E60008E50C4F89050C4F89450C4F89850C4F8E8
:102E70009C5004F8345F20206570A570E07044F821
:102E8000805F04A0C4E9015070BD00003F5461732D
:102E90006B000000200000002DE9FC5F9946DDE991
:102EA0000C7692468B460546FDF7FCF9324C2178AC
:102EB000491C2170FDF7FAF90DB93048056800206A
:102EC000308095F83600DFF8B88008283CD2DFE87B
:102ED00000F004041E1E04041E1ECDE900764B46BD
:102EE0005246594605F16400FFF706FAFDF7DAF994
:102EF0002178491E11F0FF01217021D1B8F800108E
:102F0000F1B1FDF7D3F9BDE8FC5FFFF7D3BC95F84D
:102F100034000228E1D153465A4629460020009742
:102F2000FFF70CFBFDF7BEF92178491E2170FDF774
:102F3000BDF95FEA09401CD4BDE8FC5FFDF7A6BF00
:102F4000BDE8FC5FFDF7B2B9FDF7ACF92178491E89
:102F500011F0FF01217007D1B8F8001021B1FDF781
:102F6000A5F9FFF7A7FC01E0FDF7A0F946F62D60F3
:102F70003080BDE8FC9F00007E000020D0000020D3
:102F80005000002010B5044600F0D4F994F8360043
:102F9000400704D42046BDE81040FFF7F9BB10BD40
:102FA00070B50D460446FDF77DF900262E8094F895
:102FB000361008294AD2DFE801F0040404040A2389
:102FC000333DFDF773F947F25310288024E0224D7A
:102FD0002978491C2970FDF769F994F88A00401E88
:102FE00010F0FF0084F88A0004D184F8366020468F
:102FF000FFF7C8FFFDF756F92978491E297009E047
:1030000094F88A10491E11F0FF0184F88A1001D14A
:10301000012118E0FDF74AF9BDE87040FDF736BF21
:1030200094F88A10491E11F0FF0184F88A10F1D13A
:10303000022108E094F88A10491E11F0FF0184F87B
:103040008A10E7D1032184F83610E3E7FDF72EF963
:1030500046F62D60288070BD7E000020044808B52B
:103060000068FEF78FFB69460020FEF723FA08BDD3
:10307000D00000202DE9F84F984615468A460646AE
:10308000FDF710F93D4C2178491C2170FDF70EF930
:103090000EB93B48066800203A4F3564A8F8000096
:1030A00096F8360046F6C55908284ED2DFE800F0FB
:1030B0002626222226262222FDF7F8F8FFF7FAFB21
:1030C00002E000BFFDF7F2F8A8F800900020BDE88C
:1030D000F88F6D1C7564FDF7E5F82178491E11F035
:1030E000FF0121702ED1398861B3FDF7DFF8FFF7BA
:1030F000E1FB40E096F8340007280ED0756C681CA0
:10310000E7D1FDF7CFF82178491E11F0FF012170BA
:10311000D8D139880029D5D0CEE700231A463146C8
:1031200018460095FFF70AFA756CFDF7BBF8217891
:10313000491E2170FDF7BAF85FEA0A401BD4FDF77B
:10314000A5FE18E0FDF7B2F815E0FDF7ABF8217821
:10315000491E11F0FF01217006D1398821B1FDF718
:10316000A5F8FFF7A7FB01E0FDF7A0F846F62D60F4
:10317000A8F8000000252846A9E700007E000020EE
:10318000D0000020500000202DE9F0410F460446F9
:10319000FDF788F8244904B90C680968234D8C426E
:1031A00006D1297821B1FDF781F846F6635038E061
:1031B0000021398094F83610012608292DD2DFE845
:1031C00001F004171F21272727272978491C297078
:1031D000FDF76CF8042084F8360084F88A602046F5
:1031E000FFF73EFBFDF75EF82978491E297001E0E4
:1031F000052108E0FDF75AF8BDE8F041FDF746BEAD
:10320000062100E0072184F8361084F88A60F1E78F
:1032100014F88A1F491C2170ECE7FDF747F846F6C1
:103220002D603880BDE8F081D00000207E000020B5
:1032300010B500200146074C074B06E004EBC00226
:10324000401C11609180D18080B21A889042F5D3E1
:1032500010BD0000F0340020C0430008F0B5324C2F
:1032600047F27E2625680024042A08D0B1B32E4EEA
:10327000082A36680E440BD0C0E9136115E04A1BDA
:10328000521E12F5803F2AD8521CC0E913120CE0DE
:10329000826C0A44571B7F1E8F4201D2C26400E039
:1032A000C664C16C4A1B02658164204AC16C1288E5
:1032B000B1FBF2F602FB16111D4A89B202EBC10204
:1032C000918889B11168F1B1CE6C761B0E65076DDE
:1032D000B74212D94E6966B13146F5E7FFE7C464DB
:1032E0000465C4611E80F0BD4461846101211060E9
:1032F0000BE0C0E90541486105E08D6975B1C0E9A1
:103300000515686188619188491C9180D58889B2CA
:103310008D4200D2D180C2611C80F0BDC0E905148D
:1033200088611060EFE70000B4000020C04300088F
:10333000F034002010B5C269002A15D000210165C3
:103340001368834204D14369136033B1996104E087
:10335000D0E90534636103B19C6141618161C16160
:10336000C1649088401E908010BD000010B5002000
:103370000446064B064A04E003EBC001401CCC8027
:1033800080B211888842F7D310BD0000F0340020CD
:10339000C04300082DE9F05FFCF784FF474D297812
:1033A000491C2970FCF782FFDFF81481002745498A
:1033B000D8F80000B946401CC8F8000009884FF052
:1033C000030AB0FBF1F201FB12003F4980B24FF05B
:1033D000040B51F83040D4B394F8360066690828DD
:1033E0004FD2DFE800F04E044E114E274E35E06C10
:1033F000D8F80010421A2265884244D184F83690E9
:103400002046FFF7BFFD3CE0E06CD8F80010421A00
:103410002265884237D1C4F85C90A4F860902046B9
:10342000C4F84090FFF75CF82046FFF7ABFD84F846
:10343000369022E0E06CD8F80010421A22658842EB
:1034400021D184F836B02046FFF774FF19E01AE066
:10345000E06CD8F80010421A2265884213D1C4F8F3
:103460005C90A4F860902046C4F84090FFF738F8CC
:103470002046FFF75FFF84F836B084F835A084F863
:1034800034903446A7E7114978420A68824200D254
:103490000860FCF707FF2978491E11F0FF01297029
:1034A00008D10B49098829B1FCF700FFBDE8F05F9E
:1034B000FFF700BABDE8F05FFCF7F8BE7E00002021
:1034C000B4000020C0430008F0340020B800002001
:1034D000500000201CB5084C00216B4601AA08468C
:1034E000FEF758F9BDF800000028F5D12078012832
:1034F000F2D1FFF74FFFEFE74500002030B504465B
:103500001A4889B00025056019480560FFF790FE4C
:103510001848016841B11849184B0A681B689A425B
:1035200005D247F2132008E047F2122005E0144AC2
:1035300013781F2B04D347F21120208009B030BD2F
:103540000B2305950695CDE907340E4B09680068F5
:103550001B68CDE90103CDE9031510780090002325
:10356000094A0AA10E48FDF7C3FEE7E7B4000020B0
:10357000B8000020B4430008BC430008A84300087A
:10358000B0430008B8430008D534000875432F4FF6
:10359000532D494949205469636B205461736B0072
:1035A000CC3B002030B52A4A89B00021294B11605C
:1035B000294C2A4A1D681DB12468B4FBF5F303E0C9
:1035C00023680A24B3FBF4F313601A46244B274DF7
:1035D000274C1A60234A1160234A1160002206E03A
:1035E00005EBC203521C9980D98092B219602388DE
:1035F0009A42F5D31F4B1A6842B11F4A1F4D1468F7
:103600002D68AC4205D247F2483108E047F2473115
:1036100005E01B4C25781F2D04D347F2463101806D
:1036200009B030BD0B2505910691CDE90750106812
:10363000144A1B681268CDE90301CDE901322078F4
:1036400000900023104A11A11648FDF751FEE7E74C
:10365000BC000020C4430008AC430008C8000020A0
:10366000CC000020C4000020C000002078370020DB
:10367000D4430008C8430008D0430008A84300080A
:10368000C2430008CC4300086937000875432F4F38
:10369000532D4949492054696D6572205461736BFB
:1036A000000000008C3C002070B5022280F82A2027
:1036B000204A012914681ED0016AE1B11E4A214442
:1036C00081611288B1FBF2F302FB13121B4B92B221
:1036D00003EBC202002315687DB1091BC1611168AB
:1036E000D1B18D692D1BCD61C669AE420ED90D6970
:1036F00045B12946F5E7416AE0E70361436110609F
:1037000001200BE0C0E90431086105E04C6964B1B7
:10371000C0E90414206148619088401C9080D188E1
:1037200080B2814200D2D08070BDC0E904134861EC
:103730001060F1E7C4000020D4430008783700206F
:1037400010B500200446064B064A04E003EBC00116
:10375000401CCC8080B211888842F7D310BD000095
:1037600078370020D44300081CB5DFF88890DFF8D4
:1037700088A0224DDFF888B000216B4601AA0846D8
:10378000FEF708F86846FDF7BFFB28680027401CD5
:103790002860B9F800104FF00308B0FBF1F201FB0C
:1037A000120080B25AF83040C4B1A0692968266975
:1037B000884213D1204600F025F8208D022808D039
:1037C00084F82A80A26812B12046E1689047344606
:1037D000EAE701212046FFF767FFF3E77C426846EE
:1037E000FDF7B8FBDBF80010A142C5D2CBF80040D2
:1037F000C2E70000D443000878370020C40000204E
:10380000C000002010B5104A81691288B1FBF2F3A4
:1038100002FB13110D4A89B202EBC10200231468A6
:103820000169844203D1116029B14B6103E044690D
:10383000216101B14C61012180F82A1003614361CB
:103840009088401E908010BDD44300087837002037
:1038500010B500F01BF9FCF707FEFCF779FF00F04C
:10386000DFF900F09BFCBDE8104000F0B7BC0000A1
:10387000044A0029D16901D0014300E08143D161AC
:103880007047000000100240044A0029916901D0ED
:10389000014300E081439161704700000010024045
:1038A0000149C86470470000000042420C480168AA
:1038B00041F00101016041680A4A1140416001681C
:1038C000094A11400160016821F4802101604168CA
:1038D00021F4FE0141604FF41F0181607047000038
:1038E000001002400000FFF8FFFFF6FE30B51F4950
:1038F0004A6812F00C031E4A03D0042B01D0082B97
:1039000021D002604A680F231A4C03EA1212A35C0A
:103910000268DA4042604B68072505EA1323E35C3E
:1039200022FA03F383604B6805EAD323E35CDA40B1
:10393000C2604968032303EA9131231F595CB2FB3B
:10394000F1F1016130BD4A684B6802F470124FF02A
:10395000020413F4803F04EB924202D04B689B03B5
:1039600001D5054B00E0024B5A43CAE70010024064
:1039700000127A000400002000093D0002460020E9
:1039800053090949012B0BD0022B0BD0D1F824107D
:1039900002F01F02012393400B4200D00120704728
:1039A0000968F5E7096AF3E7001002400248406839
:1039B00000F00C007047000000100240034A5168FC
:1039C00021F0F001014351607047000000100240F7
:1039D0000B490A6822F480320A600A6822F48022C5
:1039E0000A60B0F5803F07D0B0F5802F03D108689A
:1039F00040F4A02008607047086840F48030F9E780
:103A000000100240034A516821F4E0610143516013
:103A1000704700000010024003494A6822F46052D7
:103A200042EAC00048607047001002400149086641
:103A30007047000000004242034A5368084323F4E1
:103A40007C1318435060704700100240034A5168CD
:103A500021F0030101435160704700000010024053
:103A600018B500204FF4A06400903120FFF786FFC6
:103A70000099491C0091A14201D00028F5D03120C5
:103A8000FFF77CFF002800D0012018BD10B5FFF71C
:103A90000DFF4FF480342046FFF79AFFFFF7E0FF59
:103AA000012823D11020FCF773FC0220FCF77CFCDA
:103AB0000020FFF783FF0020FFF7AEFFA011FFF704
:103AC000A1FF4FF4E0112046FFF7B6FF0120FFF7FA
:103AD000ADFF3920FFF752FF0028FAD00220FFF790
:103AE000B5FF00BFFFF762FF0828FBD10120FFF7F9
:103AF000D7FE0648FFF7FAFE01210846FFF7C4FE8D
:103B00000121BDE810403C20FFF7BEBEDC000020D4
:103B1000704700000CB50021264801910091026811
:103B200042F4803202604FF4A063026802F4003273
:103B30000092019A521C0192009A12B9019A9A427B
:103B4000F3D10268920333D5012100911A490A6822
:103B500042F010020A600A6822F003020A600A6852
:103B600042F002020A604168416041684160416878
:103B700041F480614160416821F47C1141604168F9
:103B800041F4E8114160016841F080710160016811
:103B90008901FCD5416821F003014160416841F091
:103BA000020141604168C1F381010229FAD10CBDD3
:103BB00000910CBD001002400020024010B5FCF73F
:103BC00025FFFEF71BF8BDE81040FCF72FBF0000F3
:103BD0000F4810B5016841F00101016041680D4ACC
:103BE0001140416001680C4A11400160016821F4F4
:103BF00080210160416821F4FE0141604FF41F0102
:103C00008160FFF787FF05494FF00060086010BD35
:103C1000001002400000FFF8FFFFF6FE08ED00E094
:103C200070B505218D1F2846FCF782FD0B484FF427
:103C30007A714068B0FBF1F1491EB1F1807F0BD27F
:103C40004FF0E02461610F212846FCF771FD002050
:103C5000A0610720206170BDFEE70000DC000020AD
:103C60000EB5114F002502AC4FF4005604210FA0F1
:103C700000F052FA0022CDE90054642311461046A8
:103C8000FDF71AFF31463846FCF7EBFB0022CDE981
:103C90000054642311461046FDF70EFF31463846A6
:103CA000FCF7DDFBE2E7000000100140686168619D
:103CB000000000000EB50F4F002502AC4FF4804607
:103CC0000022CDE90054C82311461046FDF7F4FE4A
:103CD00031463846FCF7C5FB0022CDE90054C82325
:103CE00011461046FDF7E8FE31463846FCF7B7FBB3
:103CF000E6E70000000C01400EB5DFF8408000252B
:103D000002AC4FF496764FF400470022CDE9005400
:103D1000334611461046FDF7CFFE39464046FCF7C4
:103D2000A0FB0022CDE90054334611461046FDF7B2
:103D3000C3FE39464046FCF792FBE6E7000C014023
:103D40002DE9F0438BB0002406A809AE03250594A5
:103D500080E870004FF00C083A4904208DE8030118
:103D600080273848CDE903742346374A37A1C03845
:103D7000FDF7BEFA06A8059480E8700035490520D5
:103D80008DE803013348CDE903740023324A33A19F
:103D9000C038FDF7ADFA06A8059480E870003149F7
:103DA00006208DE803012F48CDE9037400232E4A35
:103DB0002EA1C038FDF79CFA06AB059483E870008D
:103DC00078001921CDE902102A4A0220CDE900022B
:103DD000284804940023284A28A1C038FDF788FA0F
:103DE0004FF0330906A8CDF80890059480E87000DC
:103DF000274A0A27CDE900524FF400782448CDE93C
:103E000003870023234A24A1C038FDF771FA274A0B
:103E1000072005948DE805020DF11809234889E86B
:103E20007000CDE903870023214A22A1C038FDF7A5
:103E30005FFAFFF70DFD09A92448FDF73BFB0BB026
:103E4000BDE8F083B0030020613C00084C454431DC
:103E50000000000070060020B53C00084C454432CC
:103E60000000000030090020F93C00084C454433B4
:103E700000000000B01400208940000855736172F2
:103E800074315F53656E644D73675F5461736B008B
:103E9000F00B0020314100085573617274315F539B
:103EA000746F72654D73675461736B0070190020F5
:103EB000754000085573617274315F5278446174C3
:103EC000614465616C5461736B000000F000002078
:103ED00070B5124C40F227752946204600F036F89E
:103EE00018B10F4A00210F480AE040F22555294633
:103EF000204600F02BF800280FD0094A00210A487C
:103F0000FDF732F92946204600F010F829462046F0
:103F1000BDE87040002200F038B870BD00380140A4
:103F20001400002070210020F82200200A0A01213C
:103F30009140C943018070470029818902D041F432
:103F4000005101E021F400518181704730B501F04A
:103F50001F0201240025C1F3421304FA02F2012BCF
:103F60000FD0022B0FD0838A4FEA11210088134211
:103F700004FA01F400EA040001D000B1012528464A
:103F800030BD8389F0E7038AEEE710B5C1F3421331
:103F900001F01F040121A140012B07D0022B07D003
:103FA0001430002A026805D00A4304E00C30F8E718
:103FB0001030F6E78A43026010BD000030B50446B9
:103FC000008A85B00D464CF6FF710840E988014330
:103FD0002182A1894EF6F3100140A8882A89104356
:103FE0006A890A431043A081A08A4FF6FF41084026
:103FF000A9890143A1826846FFF778FC19488442E9
:1040000001D1039800E00298A189090400EBC001E6
:1040100001EB0010296801D5490000E08900B0FBE0
:10402000F1F06422B0FBF2F109010B096FF0180501
:104030006B4300EB8300A3891D044FF0320306D5C8
:1040400003EBC000B0FBF2F000F0070005E003EB6B
:104050000010B0FBF2F000F00F000843208105B023
:1040600030BD000000380140C1F308018180704775
:10407000FEE7000008B56A4600210248FDF774F823
:10408000F9E70000202300201FB5204F204C0DF140
:104090000C0902AECDE9009600221D4B11461D48C9
:1040A000FCF7F8FD05466060BDF808000028F1D176
:1040B00040F227782088E0B1012241463846FFF7D8
:1040C00064FF1448002203AB114650380096FCF7F9
:1040D000ADFFBDF808000028ECD1606801783846D3
:1040E000FFF7C2FF6068401C60602088401E20808F
:1040F000E0E7084802AA29463030FCF764FD05488D
:1041000002AA00212838FDF72FF8C3E70038014044
:1041100018000020C02100201CB501AA00920A4608
:10412000014600230148FDF7FFFA1CBD300B0020BB
:104130001FB501AC002103AB02AA08460094FDF7AD
:104140004DFA0646002203AB114613480094FCF7D3
:104150006DFF114801A95830FCF714FD0546BDF864
:1041600004000028E6D1BDF8080014280DD231461D
:104170002846FCF7ADF8084800230094BDF8082055
:1041800029462830FCF73AFED4E7034801AA29461D
:104190005830FCF718FDCDE7982100201FB54FF4EB
:1041A0001650009000200C21ADF80A10ADF8060062
:1041B000ADF80C00ADF80800ADF80400012188034B
:1041C000FFF762FB044C69462046FFF7F7FE01212A
:1041D0002046FFF7B1FE1FBD003801407FB5012129
:1041E0004805FFF745FB4FF480642001ADF80C0053
:1041F000104800904BF6FF70ADF806000020ADF8B7
:104200000400ADF80A400A200B4DADF808006946DD
:104210002846FCF7F1F901212846FCF7D3F90122E1
:1042200051022846FCF7DFF9012221462846FCF717
:10423000DAF97FBD801A06000054004010B58AB03C
:1042400009A8FCF71DFB09AB002227A12948FCF7B0
:10425000B1FE284809AB0A2227A12830FCF7AAFEA4
:1042600009AB002228A12B48FCF7A4FE294809AB82
:104270000A2229A12830FCF79DFE1E4809AB0A221C
:1042800029A15030FCF7C2FC09AC1420194ACDE931
:104290000004A0320A2327A1A2F12000FCF70EFCA3
:1042A0001C4809AB002227A15030FCF76FFA002010
:1042B00006AA0321059082E81300082202925021E9
:1042C000CDE90310234B0120CDE900032148002351
:1042D000214A22A1C038FDF70BF809A8FCF77AFFA4
:1042E0000AB0002010BD00005573617274315F5434
:1042F000584500007021002053746F726167655F3C
:104300004C656674000000005573617274315F5231
:10431000584E4500F822002052785F53746F726146
:1043200067655F4C656674005573617274315F53E5
:10433000747200005573617274315F537472696EE8
:10434000670000004932434576656E74466C6167CC
:1043500047727000B0010020413D00085374617243
:1043600074000000702300200C000000800000009A
:10437000702500200A000000B02600200C0000007C
:1043800080000000B02800208000000064000000D1
:10439000B02A00200B0000000A000000F0300020CE
:1043A0000C0000008000000040000000E803000056
:1043B0000A000000F03200200C0000008000000025
:1043C00011000B000A000000783500200C000000EE
:1043D0008000000011000000F843000800000020E9
:1043E000DC0000006C010008D4440008DC00002060
:1043F000D442000088010008020406080000000002
:10440000010203040102030406070809000000007A
:10441000000000000000000000000000000000009C
:10442000000000000000000000000000000000008C
:10443000000000000000000000000000000000007C
:10444000000000000000000000000000000000006C
:10445000000000000000000000000000000000005C
:10446000000000000000000000000000000000004C
:10447000000000000000000000000000000000003C
:10448000000000000000000000000000000000002C
:10449000000000000000000000000000000000001C
:1044A000000000000000000000000000000000000C
:1044B00000000000000000000000000000000000FC
:1044C00000000000000000000000000000000000EC
:0444D00000000000E8
:0400000508000131BD
:00000001FF
